{
  "contractName": "MarketPlace",
  "abi": [
    {
      "constant": true,
      "inputs": [
        {
          "internalType": "address",
          "name": "",
          "type": "address"
        }
      ],
      "name": "merchantExist",
      "outputs": [
        {
          "internalType": "bool",
          "name": "",
          "type": "bool"
        }
      ],
      "payable": false,
      "stateMutability": "view",
      "type": "function"
    },
    {
      "constant": true,
      "inputs": [
        {
          "internalType": "address",
          "name": "",
          "type": "address"
        }
      ],
      "name": "merchants",
      "outputs": [
        {
          "internalType": "contract Merchant",
          "name": "",
          "type": "address"
        }
      ],
      "payable": false,
      "stateMutability": "view",
      "type": "function"
    },
    {
      "constant": true,
      "inputs": [
        {
          "internalType": "string",
          "name": "",
          "type": "string"
        }
      ],
      "name": "resourceManagers",
      "outputs": [
        {
          "internalType": "contract ResourceManager",
          "name": "",
          "type": "address"
        }
      ],
      "payable": false,
      "stateMutability": "view",
      "type": "function"
    },
    {
      "constant": true,
      "inputs": [],
      "name": "test",
      "outputs": [
        {
          "internalType": "string",
          "name": "",
          "type": "string"
        }
      ],
      "payable": false,
      "stateMutability": "view",
      "type": "function"
    },
    {
      "constant": true,
      "inputs": [],
      "name": "getTest",
      "outputs": [
        {
          "internalType": "string",
          "name": "",
          "type": "string"
        }
      ],
      "payable": false,
      "stateMutability": "view",
      "type": "function"
    },
    {
      "constant": false,
      "inputs": [
        {
          "internalType": "string",
          "name": "_name",
          "type": "string"
        },
        {
          "internalType": "bool",
          "name": "_isGov",
          "type": "bool"
        }
      ],
      "name": "registerMerchant",
      "outputs": [],
      "payable": false,
      "stateMutability": "nonpayable",
      "type": "function"
    },
    {
      "constant": true,
      "inputs": [],
      "name": "getMerchant",
      "outputs": [
        {
          "internalType": "contract Merchant",
          "name": "",
          "type": "address"
        }
      ],
      "payable": false,
      "stateMutability": "view",
      "type": "function"
    },
    {
      "constant": true,
      "inputs": [],
      "name": "isMerchant",
      "outputs": [
        {
          "internalType": "bool",
          "name": "",
          "type": "bool"
        }
      ],
      "payable": false,
      "stateMutability": "view",
      "type": "function"
    },
    {
      "constant": true,
      "inputs": [
        {
          "internalType": "string",
          "name": "_resourceName",
          "type": "string"
        }
      ],
      "name": "getResource",
      "outputs": [
        {
          "internalType": "contract ResourceManager",
          "name": "",
          "type": "address"
        }
      ],
      "payable": false,
      "stateMutability": "view",
      "type": "function"
    },
    {
      "constant": false,
      "inputs": [
        {
          "internalType": "string",
          "name": "_resourceType",
          "type": "string"
        },
        {
          "internalType": "uint256",
          "name": "_purchaseNumber",
          "type": "uint256"
        },
        {
          "internalType": "uint256",
          "name": "_purchasePeriod",
          "type": "uint256"
        }
      ],
      "name": "createResourceType",
      "outputs": [
        {
          "internalType": "string",
          "name": "",
          "type": "string"
        }
      ],
      "payable": false,
      "stateMutability": "nonpayable",
      "type": "function"
    },
    {
      "constant": true,
      "inputs": [
        {
          "internalType": "string",
          "name": "_resourceType",
          "type": "string"
        }
      ],
      "name": "getResourceManager",
      "outputs": [
        {
          "internalType": "contract ResourceManager",
          "name": "",
          "type": "address"
        }
      ],
      "payable": false,
      "stateMutability": "view",
      "type": "function"
    },
    {
      "constant": false,
      "inputs": [
        {
          "internalType": "string",
          "name": "_resourceType",
          "type": "string"
        },
        {
          "internalType": "string",
          "name": "_resourceName",
          "type": "string"
        },
        {
          "internalType": "uint256",
          "name": "_amount",
          "type": "uint256"
        },
        {
          "internalType": "bool",
          "name": "_isGov",
          "type": "bool"
        }
      ],
      "name": "createSingleResource",
      "outputs": [
        {
          "internalType": "contract Resource",
          "name": "",
          "type": "address"
        }
      ],
      "payable": false,
      "stateMutability": "nonpayable",
      "type": "function"
    }
  ],
  "bytecode": "0x60806040526040518060400160405280600581526020017f4141414141000000000000000000000000000000000000000000000000000000815250600090805190602001906200005192919062000066565b503480156200005f57600080fd5b5062000115565b828054600181600116156101000203166002900490600052602060002090601f016020900481019282601f10620000a957805160ff1916838001178555620000da565b82800160010185558215620000da579182015b82811115620000d9578251825591602001919060010190620000bc565b5b509050620000e99190620000ed565b5090565b6200011291905b808211156200010e576000816000905550600101620000f4565b5090565b90565b6139f180620001256000396000f3fe60806040523480156200001157600080fd5b5060043610620000c45760003560e01c8063d017fd39116200007b578063d017fd391462000540578063e9fd2ae31462000641578063ee14e9391462000742578063f428dbd414620007c9578063f60e6782146200091a578063f8a8fd6d146200097957620000c4565b80633f1247b014620000c95780634bf87eb3146200027a57806365d801171462000347578063a8cd0a801462000448578063abf244e914620004d0578063cecb5563146200051c575b600080fd5b6200023860048036036080811015620000e157600080fd5b8101908080359060200190640100000000811115620000ff57600080fd5b8201836020820111156200011257600080fd5b803590602001918460018302840111640100000000831117156200013557600080fd5b91908080601f016020809104026020016040519081016040528093929190818152602001838380828437600081840152601f19601f820116905080830192505050505050509192919290803590602001906401000000008111156200019957600080fd5b820183602082011115620001ac57600080fd5b80359060200191846001830284011164010000000083111715620001cf57600080fd5b91908080601f016020809104026020016040519081016040528093929190818152602001838380828437600081840152601f19601f8201169050808301925050505050505091929192908035906020019092919080351515906020019092919050505062000a01565b604051808273ffffffffffffffffffffffffffffffffffffffff1673ffffffffffffffffffffffffffffffffffffffff16815260200191505060405180910390f35b62000345600480360360408110156200029257600080fd5b8101908080359060200190640100000000811115620002b057600080fd5b820183602082011115620002c357600080fd5b80359060200191846001830284011164010000000083111715620002e657600080fd5b91908080601f016020809104026020016040519081016040528093929190818152602001838380828437600081840152601f19601f82011690508083019250505050505050919291929080351515906020019092919050505062000bef565b005b62000406600480360360208110156200035f57600080fd5b81019080803590602001906401000000008111156200037d57600080fd5b8201836020820111156200039057600080fd5b80359060200191846001830284011164010000000083111715620003b357600080fd5b91908080601f016020809104026020016040519081016040528093929190818152602001838380828437600081840152601f19601f82011690508083019250505050505050919291929050505062000d21565b604051808273ffffffffffffffffffffffffffffffffffffffff1673ffffffffffffffffffffffffffffffffffffffff16815260200191505060405180910390f35b6200045262000db6565b6040518080602001828103825283818151815260200191508051906020019080838360005b838110156200049457808201518184015260208101905062000477565b50505050905090810190601f168015620004c25780820380516001836020036101000a031916815260200191505b509250505060405180910390f35b620004da62000e5c565b604051808273ffffffffffffffffffffffffffffffffffffffff1673ffffffffffffffffffffffffffffffffffffffff16815260200191505060405180910390f35b6200052662000ed7565b604051808215151515815260200191505060405180910390f35b620005ff600480360360208110156200055857600080fd5b81019080803590602001906401000000008111156200057657600080fd5b8201836020820111156200058957600080fd5b80359060200191846001830284011164010000000083111715620005ac57600080fd5b91908080601f016020809104026020016040519081016040528093929190818152602001838380828437600081840152601f19601f82011690508083019250505050505050919291929050505062000f3e565b604051808273ffffffffffffffffffffffffffffffffffffffff1673ffffffffffffffffffffffffffffffffffffffff16815260200191505060405180910390f35b62000700600480360360208110156200065957600080fd5b81019080803590602001906401000000008111156200067757600080fd5b8201836020820111156200068a57600080fd5b80359060200191846001830284011164010000000083111715620006ad57600080fd5b91908080601f016020809104026020016040519081016040528093929190818152602001838380828437600081840152601f19601f82011690508083019250505050505050919291929050505062000fd3565b604051808273ffffffffffffffffffffffffffffffffffffffff1673ffffffffffffffffffffffffffffffffffffffff16815260200191505060405180910390f35b62000787600480360360208110156200075a57600080fd5b81019080803573ffffffffffffffffffffffffffffffffffffffff1690602001909291905050506200101c565b604051808273ffffffffffffffffffffffffffffffffffffffff1673ffffffffffffffffffffffffffffffffffffffff16815260200191505060405180910390f35b6200089c60048036036060811015620007e157600080fd5b8101908080359060200190640100000000811115620007ff57600080fd5b8201836020820111156200081257600080fd5b803590602001918460018302840111640100000000831117156200083557600080fd5b91908080601f016020809104026020016040519081016040528093929190818152602001838380828437600081840152601f19601f82011690508083019250505050505050919291929080359060200190929190803590602001909291905050506200104f565b6040518080602001828103825283818151815260200191508051906020019080838360005b83811015620008de578082015181840152602081019050620008c1565b50505050905090810190601f1680156200090c5780820380516001836020036101000a031916815260200191505b509250505060405180910390f35b6200095f600480360360208110156200093257600080fd5b81019080803573ffffffffffffffffffffffffffffffffffffffff169060200190929190505050620011b9565b604051808215151515815260200191505060405180910390f35b62000983620011d9565b6040518080602001828103825283818151815260200191508051906020019080838360005b83811015620009c5578082015181840152602081019050620009a8565b50505050905090810190601f168015620009f35780820380516001836020036101000a031916815260200191505b509250505060405180910390f35b60008084848460405162000a15906200127b565b808060200184815260200183151515158152602001828103825285818151815260200191508051906020019080838360005b8381101562000a6457808201518184015260208101905062000a47565b50505050905090810190601f16801562000a925780820380516001836020036101000a031916815260200191505b50945050505050604051809103906000f08015801562000ab6573d6000803e3d6000fd5b50905060006001876040518082805190602001908083835b6020831062000af3578051825260208201915060208101905060208303925062000ace565b6001836020036101000a038019825116818451168082178552505050505050905001915050908152602001604051809103902060009054906101000a900473ffffffffffffffffffffffffffffffffffffffff1690508073ffffffffffffffffffffffffffffffffffffffff16635bc05aae836040518263ffffffff1660e01b8152600401808273ffffffffffffffffffffffffffffffffffffffff1673ffffffffffffffffffffffffffffffffffffffff168152602001915050600060405180830381600087803b15801562000bc957600080fd5b505af115801562000bde573d6000803e3d6000fd5b505050508192505050949350505050565b6000828260405162000c019062001289565b808060200183151515158152602001828103825284818151815260200191508051906020019080838360005b8381101562000c4a57808201518184015260208101905062000c2d565b50505050905090810190601f16801562000c785780820380516001836020036101000a031916815260200191505b509350505050604051809103906000f08015801562000c9b573d6000803e3d6000fd5b50905080600260003373ffffffffffffffffffffffffffffffffffffffff1673ffffffffffffffffffffffffffffffffffffffff16815260200190815260200160002060006101000a81548173ffffffffffffffffffffffffffffffffffffffff021916908373ffffffffffffffffffffffffffffffffffffffff160217905550505050565b60006001826040518082805190602001908083835b6020831062000d5b578051825260208201915060208101905060208303925062000d36565b6001836020036101000a038019825116818451168082178552505050505050905001915050908152602001604051809103902060009054906101000a900473ffffffffffffffffffffffffffffffffffffffff169050919050565b606060008054600181600116156101000203166002900480601f01602080910402602001604051908101604052809291908181526020018280546001816001161561010002031660029004801562000e525780601f1062000e265761010080835404028352916020019162000e52565b820191906000526020600020905b81548152906001019060200180831162000e3457829003601f168201915b5050505050905090565b600062000e6862000ed7565b62000e7257600080fd5b600260003373ffffffffffffffffffffffffffffffffffffffff1673ffffffffffffffffffffffffffffffffffffffff16815260200190815260200160002060009054906101000a900473ffffffffffffffffffffffffffffffffffffffff16905090565b6000600360003373ffffffffffffffffffffffffffffffffffffffff1673ffffffffffffffffffffffffffffffffffffffff16815260200190815260200160002060009054906101000a900460ff161562000f36576001905062000f3b565b600090505b90565b60006001826040518082805190602001908083835b6020831062000f78578051825260208201915060208101905060208303925062000f53565b6001836020036101000a038019825116818451168082178552505050505050905001915050908152602001604051809103902060009054906101000a900473ffffffffffffffffffffffffffffffffffffffff169050919050565b6001818051602081018201805184825260208301602085012081835280955050505050506000915054906101000a900473ffffffffffffffffffffffffffffffffffffffff1681565b60026020528060005260406000206000915054906101000a900473ffffffffffffffffffffffffffffffffffffffff1681565b60606000848484604051620010649062001297565b8080602001848152602001838152602001828103825285818151815260200191508051906020019080838360005b83811015620010af57808201518184015260208101905062001092565b50505050905090810190601f168015620010dd5780820380516001836020036101000a031916815260200191505b50945050505050604051809103906000f08015801562001101573d6000803e3d6000fd5b509050806001866040518082805190602001908083835b602083106200113d578051825260208201915060208101905060208303925062001118565b6001836020036101000a038019825116818451168082178552505050505050905001915050908152602001604051809103902060006101000a81548173ffffffffffffffffffffffffffffffffffffffff021916908373ffffffffffffffffffffffffffffffffffffffff160217905550849150509392505050565b60036020528060005260406000206000915054906101000a900460ff1681565b60008054600181600116156101000203166002900480601f016020809104026020016040519081016040528092919081815260200182805460018160011615610100020316600290048015620012735780601f10620012475761010080835404028352916020019162001273565b820191906000526020600020905b8154815290600101906020018083116200125557829003601f168201915b505050505081565b61149680620012a683390190565b610a1f806200273c83390190565b610862806200315b8339019056fe60806040523480156200001157600080fd5b506040516200149638038062001496833981810160405260608110156200003757600080fd5b81019080805160405193929190846401000000008211156200005857600080fd5b838201915060208201858111156200006f57600080fd5b82518660018202830111640100000000821117156200008d57600080fd5b8083526020830192505050908051906020019080838360005b83811015620000c3578082015181840152602081019050620000a6565b50505050905090810190601f168015620000f15780820380516001836020036101000a031916815260200191505b506040526020018051906020019092919080519060200190929190505050326000806101000a81548173ffffffffffffffffffffffffffffffffffffffff021916908373ffffffffffffffffffffffffffffffffffffffff160217905550826001908051906020019062000167929190620001a2565b5080600260006101000a81548160ff021916908315150217905550600060058190555060006006819055508160038190555050505062000251565b828054600181600116156101000203166002900490600052602060002090601f016020900481019282601f10620001e557805160ff191683800117855562000216565b8280016001018555821562000216579182015b8281111562000215578251825591602001919060010190620001f8565b5b50905062000225919062000229565b5090565b6200024e91905b808211156200024a57600081600090555060010162000230565b5090565b90565b61123580620002616000396000f3fe608060405234801561001057600080fd5b50600436106101215760003560e01c8063a035b1fe116100ad578063d72daab611610071578063d72daab61461086a578063d735cf26146108ac578063f4880b22146108ca578063f53b34801461094d578063fc6b3204146109f457610121565b8063a035b1fe14610727578063aa8c217c14610745578063b76f061b14610763578063bbbb20ca1461080a578063ce23a7141461082857610121565b80635b5e9ef6116100f45780635b5e9ef6146102d55780636ab238291461031757806376b857a11461035d5780638da5cb5b146105505780638f28e32d1461059a57610121565b806303f8a0481461012657806306fdde031461019457806333b7fd661461021757806341f6cae114610259575b600080fd5b6101526004803603602081101561013c57600080fd5b8101908080359060200190929190505050610a16565b604051808273ffffffffffffffffffffffffffffffffffffffff1673ffffffffffffffffffffffffffffffffffffffff16815260200191505060405180910390f35b61019c610a5e565b6040518080602001828103825283818151815260200191508051906020019080838360005b838110156101dc5780820151818401526020810190506101c1565b50505050905090810190601f1680156102095780820380516001836020036101000a031916815260200191505b509250505060405180910390f35b6102436004803603602081101561022d57600080fd5b8101908080359060200190929190505050610afc565b6040518082815260200191505060405180910390f35b6102856004803603602081101561026f57600080fd5b8101908080359060200190929190505050610b24565b604051808473ffffffffffffffffffffffffffffffffffffffff1673ffffffffffffffffffffffffffffffffffffffff168152602001838152602001828152602001935050505060405180910390f35b610301600480360360208110156102eb57600080fd5b8101908080359060200190929190505050610b7b565b6040518082815260200191505060405180910390f35b6103436004803603602081101561032d57600080fd5b8101908080359060200190929190505050610ba3565b604051808215151515815260200191505060405180910390f35b61054e6004803603608081101561037357600080fd5b810190808035906020019064010000000081111561039057600080fd5b8201836020820111156103a257600080fd5b803590602001918460018302840111640100000000831117156103c457600080fd5b91908080601f016020809104026020016040519081016040528093929190818152602001838380828437600081840152601f19601f8201169050808301925050505050505091929192908035906020019064010000000081111561042757600080fd5b82018360208201111561043957600080fd5b8035906020019184600183028401116401000000008311171561045b57600080fd5b91908080601f016020809104026020016040519081016040528093929190818152602001838380828437600081840152601f19601f82011690508083019250505050505050919291929080359060200190929190803590602001906401000000008111156104c857600080fd5b8201836020820111156104da57600080fd5b803590602001918460018302840111640100000000831117156104fc57600080fd5b91908080601f016020809104026020016040519081016040528093929190818152602001838380828437600081840152601f19601f820116905080830192505050505050509192919290505050610c5e565b005b610558610cd1565b604051808273ffffffffffffffffffffffffffffffffffffffff1673ffffffffffffffffffffffffffffffffffffffff16815260200191505060405180910390f35b6105c6600480360360208110156105b057600080fd5b8101908080359060200190929190505050610cf6565b60405180806020018060200186815260200185815260200180602001848103845289818151815260200191508051906020019080838360005b8381101561061a5780820151818401526020810190506105ff565b50505050905090810190601f1680156106475780820380516001836020036101000a031916815260200191505b50848103835288818151815260200191508051906020019080838360005b83811015610680578082015181840152602081019050610665565b50505050905090810190601f1680156106ad5780820380516001836020036101000a031916815260200191505b50848103825285818151815260200191508051906020019080838360005b838110156106e65780820151818401526020810190506106cb565b50505050905090810190601f1680156107135780820380516001836020036101000a031916815260200191505b509850505050505050505060405180910390f35b61072f610f01565b6040518082815260200191505060405180910390f35b61074d610f07565b6040518082815260200191505060405180910390f35b61078f6004803603602081101561077957600080fd5b8101908080359060200190929190505050610f0d565b6040518080602001828103825283818151815260200191508051906020019080838360005b838110156107cf5780820151818401526020810190506107b4565b50505050905090810190601f1680156107fc5780820380516001836020036101000a031916815260200191505b509250505060405180910390f35b610812610fcd565b6040518082815260200191505060405180910390f35b6108546004803603602081101561083e57600080fd5b8101908080359060200190929190505050610fd3565b6040518082815260200191505060405180910390f35b6108966004803603602081101561088057600080fd5b8101908080359060200190929190505050610ffb565b6040518082815260200191505060405180910390f35b6108b4611023565b6040518082815260200191505060405180910390f35b6108d2611029565b6040518080602001828103825283818151815260200191508051906020019080838360005b838110156109125780820151818401526020810190506108f7565b50505050905090810190601f16801561093f5780820380516001836020036101000a031916815260200191505b509250505060405180910390f35b6109796004803603602081101561096357600080fd5b81019080803590602001909291905050506110c7565b6040518080602001828103825283818151815260200191508051906020019080838360005b838110156109b957808201518184015260208101905061099e565b50505050905090810190601f1680156109e65780820380516001836020036101000a031916815260200191505b509250505060405180910390f35b6109fc611187565b604051808215151515815260200191505060405180910390f35b600060098281548110610a2557fe5b906000526020600020906003020160000160009054906101000a900473ffffffffffffffffffffffffffffffffffffffff169050919050565b60018054600181600116156101000203166002900480601f016020809104026020016040519081016040528092919081815260200182805460018160011615610100020316600290048015610af45780601f10610ac957610100808354040283529160200191610af4565b820191906000526020600020905b815481529060010190602001808311610ad757829003601f168201915b505050505081565b600060098281548110610b0b57fe5b9060005260206000209060030201600101549050919050565b60098181548110610b3157fe5b90600052602060002090600302016000915090508060000160009054906101000a900473ffffffffffffffffffffffffffffffffffffffff16908060010154908060020154905083565b600060088281548110610b8a57fe5b9060005260206000209060050201600201549050919050565b60008060035411610bb357600080fd5b816003541015610bc65760009050610c59565b610bce61119a565b33816000019073ffffffffffffffffffffffffffffffffffffffff16908173ffffffffffffffffffffffffffffffffffffffff16815250504281602001818152505082816040018181525050600960065481548110610c2957fe5b90600052602060002090505060066000815480929190600101919050555082600360008282540392505081905550505b919050565b600560008154809291906001019190505550610c786111d1565b84816000018190525083816020018190525082816060018181525050818160800181905250600860055481548110610cac57fe5b9060005260206000209050506005600081548092919060010191905055505050505050565b6000809054906101000a900473ffffffffffffffffffffffffffffffffffffffff1681565b60088181548110610d0357fe5b9060005260206000209060050201600091509050806000018054600181600116156101000203166002900480601f016020809104026020016040519081016040528092919081815260200182805460018160011615610100020316600290048015610daf5780601f10610d8457610100808354040283529160200191610daf565b820191906000526020600020905b815481529060010190602001808311610d9257829003601f168201915b505050505090806001018054600181600116156101000203166002900480601f016020809104026020016040519081016040528092919081815260200182805460018160011615610100020316600290048015610e4d5780601f10610e2257610100808354040283529160200191610e4d565b820191906000526020600020905b815481529060010190602001808311610e3057829003601f168201915b505050505090806002015490806003015490806004018054600181600116156101000203166002900480601f016020809104026020016040519081016040528092919081815260200182805460018160011615610100020316600290048015610ef75780601f10610ecc57610100808354040283529160200191610ef7565b820191906000526020600020905b815481529060010190602001808311610eda57829003601f168201915b5050505050905085565b60045481565b60035481565b606060088281548110610f1c57fe5b90600052602060002090600502016001018054600181600116156101000203166002900480601f016020809104026020016040519081016040528092919081815260200182805460018160011615610100020316600290048015610fc15780601f10610f9657610100808354040283529160200191610fc1565b820191906000526020600020905b815481529060010190602001808311610fa457829003601f168201915b50505050509050919050565b60065481565b600060088281548110610fe257fe5b9060005260206000209060050201600301549050919050565b60006009828154811061100a57fe5b9060005260206000209060030201600201549050919050565b60055481565b60078054600181600116156101000203166002900480601f0160208091040260200160405190810160405280929190818152602001828054600181600116156101000203166002900480156110bf5780601f10611094576101008083540402835291602001916110bf565b820191906000526020600020905b8154815290600101906020018083116110a257829003601f168201915b505050505081565b6060600882815481106110d657fe5b90600052602060002090600502016000018054600181600116156101000203166002900480601f01602080910402602001604051908101604052809291908181526020018280546001816001161561010002031660029004801561117b5780601f106111505761010080835404028352916020019161117b565b820191906000526020600020905b81548152906001019060200180831161115e57829003601f168201915b50505050509050919050565b600260009054906101000a900460ff1681565b6040518060600160405280600073ffffffffffffffffffffffffffffffffffffffff16815260200160008152602001600081525090565b6040518060a001604052806060815260200160608152602001600081526020016000815260200160608152509056fea265627a7a72315820addfa66823ec5ec14d93ac5c8f79f253a11bbeb4aed5bfdd80d86cb616c615b164736f6c63430005100032608060405234801561001057600080fd5b50604051610a1f380380610a1f8339818101604052604081101561003357600080fd5b810190808051604051939291908464010000000082111561005357600080fd5b8382019150602082018581111561006957600080fd5b825186600182028301116401000000008211171561008657600080fd5b8083526020830192505050908051906020019080838360005b838110156100ba57808201518184015260208101905061009f565b50505050905090810190601f1680156100e75780820380516001836020036101000a031916815260200191505b50604052602001805190602001909291905050508160019080519060200190610111929190610173565b5080600260006101000a81548160ff021916908315150217905550326000806101000a81548173ffffffffffffffffffffffffffffffffffffffff021916908373ffffffffffffffffffffffffffffffffffffffff1602179055505050610218565b828054600181600116156101000203166002900490600052602060002090601f016020900481019282601f106101b457805160ff19168380011785556101e2565b828001600101855582156101e2579182015b828111156101e15782518255916020019190600101906101c6565b5b5090506101ef91906101f3565b5090565b61021591905b808211156102115760008160009055506001016101f9565b5090565b90565b6107f8806102276000396000f3fe608060405234801561001057600080fd5b50600436106100885760003560e01c806364a9e5951161005b57806364a9e595146103b95780638da5cb5b1461048c578063cbcf9985146104d6578063fc6b3204146104f857610088565b80630120e3551461008d57806304f86f3c1461016857806306fdde031461026357806341bef2cb146102e6575b600080fd5b610166600480360360408110156100a357600080fd5b81019080803590602001906401000000008111156100c057600080fd5b8201836020820111156100d257600080fd5b803590602001918460018302840111640100000000831117156100f457600080fd5b91908080601f016020809104026020016040519081016040528093929190818152602001838380828437600081840152601f19601f820116905080830192505050505050509192919290803573ffffffffffffffffffffffffffffffffffffffff16906020019092919050505061051a565b005b6102216004803603602081101561017e57600080fd5b810190808035906020019064010000000081111561019b57600080fd5b8201836020820111156101ad57600080fd5b803590602001918460018302840111640100000000831117156101cf57600080fd5b91908080601f016020809104026020016040519081016040528093929190818152602001838380828437600081840152601f19601f8201169050808301925050505050505091929192905050506105c6565b604051808273ffffffffffffffffffffffffffffffffffffffff1673ffffffffffffffffffffffffffffffffffffffff16815260200191505060405180910390f35b61026b61060f565b6040518080602001828103825283818151815260200191508051906020019080838360005b838110156102ab578082015181840152602081019050610290565b50505050905090810190601f1680156102d85780820380516001836020036101000a031916815260200191505b509250505060405180910390f35b61039f600480360360208110156102fc57600080fd5b810190808035906020019064010000000081111561031957600080fd5b82018360208201111561032b57600080fd5b8035906020019184600183028401116401000000008311171561034d57600080fd5b91908080601f016020809104026020016040519081016040528093929190818152602001838380828437600081840152601f19601f8201169050808301925050505050505091929192905050506106ad565b604051808215151515815260200191505060405180910390f35b610472600480360360208110156103cf57600080fd5b81019080803590602001906401000000008111156103ec57600080fd5b8201836020820111156103fe57600080fd5b8035906020019184600183028401116401000000008311171561042057600080fd5b91908080601f016020809104026020016040519081016040528093929190818152602001838380828437600081840152601f19601f82011690508083019250505050505050919291929050505061073e565b604051808215151515815260200191505060405180910390f35b610494610774565b604051808273ffffffffffffffffffffffffffffffffffffffff1673ffffffffffffffffffffffffffffffffffffffff16815260200191505060405180910390f35b6104de610799565b604051808215151515815260200191505060405180910390f35b6105006107b0565b604051808215151515815260200191505060405180910390f35b806003836040518082805190602001908083835b60208310610551578051825260208201915060208101905060208303925061052e565b6001836020036101000a038019825116818451168082178552505050505050905001915050908152602001604051809103902060006101000a81548173ffffffffffffffffffffffffffffffffffffffff021916908373ffffffffffffffffffffffffffffffffffffffff1602179055505050565b6003818051602081018201805184825260208301602085012081835280955050505050506000915054906101000a900473ffffffffffffffffffffffffffffffffffffffff1681565b60018054600181600116156101000203166002900480601f0160208091040260200160405190810160405280929190818152602001828054600181600116156101000203166002900480156106a55780601f1061067a576101008083540402835291602001916106a5565b820191906000526020600020905b81548152906001019060200180831161068857829003601f168201915b505050505081565b60006004826040518082805190602001908083835b602083106106e557805182526020820191506020810190506020830392506106c2565b6001836020036101000a038019825116818451168082178552505050505050905001915050908152602001604051809103902060009054906101000a900460ff16156107345760019050610739565b600090505b919050565b6004818051602081018201805184825260208301602085012081835280955050505050506000915054906101000a900460ff1681565b6000809054906101000a900473ffffffffffffffffffffffffffffffffffffffff1681565b6000600260009054906101000a900460ff16905090565b600260009054906101000a900460ff168156fea265627a7a72315820cd0b72035f29d040ee6176f08f18b55d6da1c3d59bda53e08b2e131c1556698d64736f6c63430005100032608060405234801561001057600080fd5b506040516108623803806108628339818101604052606081101561003357600080fd5b810190808051604051939291908464010000000082111561005357600080fd5b8382019150602082018581111561006957600080fd5b825186600182028301116401000000008211171561008657600080fd5b8083526020830192505050908051906020019080838360005b838110156100ba57808201518184015260208101905061009f565b50505050905090810190601f1680156100e75780820380516001836020036101000a031916815260200191505b506040526020018051906020019092919080519060200190929190505050826000908051906020019061011b92919061013a565b50816002819055508060038190555060006005819055505050506101df565b828054600181600116156101000203166002900490600052602060002090601f016020900481019282601f1061017b57805160ff19168380011785556101a9565b828001600101855582156101a9579182015b828111156101a857825182559160200191906001019061018d565b5b5090506101b691906101ba565b5090565b6101dc91905b808211156101d85760008160009055506001016101c0565b5090565b90565b610674806101ee6000396000f3fe608060405234801561001057600080fd5b506004361061009e5760003560e01c80639b28e008116100665780639b28e008146101e7578063bbbb20ca14610246578063df0f093b14610264578063f7d2219014610282578063fc3d0059146103055761009e565b80631833f2e1146100a3578063244d6daa146100e95780633caedaa9146101575780635ab4a72b146101755780635bc05aae146101a3575b600080fd5b6100cf600480360360208110156100b957600080fd5b810190808035906020019092919050505061030f565b604051808215151515815260200191505060405180910390f35b610115600480360360208110156100ff57600080fd5b81019080803590602001909291905050506103e7565b604051808273ffffffffffffffffffffffffffffffffffffffff1673ffffffffffffffffffffffffffffffffffffffff16815260200191505060405180910390f35b61015f610423565b6040518082815260200191505060405180910390f35b6101a16004803603602081101561018b57600080fd5b8101908080359060200190929190505050610429565b005b6101e5600480360360208110156101b957600080fd5b81019080803573ffffffffffffffffffffffffffffffffffffffff1690602001909291905050506104a0565b005b610229600480360360208110156101fd57600080fd5b81019080803573ffffffffffffffffffffffffffffffffffffffff16906020019092919050505061050d565b604051808381526020018281526020019250505060405180910390f35b61024e610531565b6040518082815260200191505060405180910390f35b61026c610537565b6040518082815260200191505060405180910390f35b61028a61053d565b6040518080602001828103825283818151815260200191508051906020019080838360005b838110156102ca5780820151818401526020810190506102af565b50505050905090810190601f1680156102f75780820380516001836020036101000a031916815260200191505b509250505060405180910390f35b61030d6105db565b005b600080600160003373ffffffffffffffffffffffffffffffffffffffff1673ffffffffffffffffffffffffffffffffffffffff1681526020019081526020016000206001015490506000600160003373ffffffffffffffffffffffffffffffffffffffff1673ffffffffffffffffffffffffffffffffffffffff168152602001908152602001600020600001549050426003548201106103bc576103b16105db565b6001925050506103e2565b600254848301116103db576103d084610429565b6001925050506103e2565b6000925050505b919050565b600481815481106103f457fe5b906000526020600020016000915054906101000a900473ffffffffffffffffffffffffffffffffffffffff1681565b60055481565b610431610625565b428160000181815250508181602001818152505080600160003373ffffffffffffffffffffffffffffffffffffffff1673ffffffffffffffffffffffffffffffffffffffff16815260200190815260200160002060008201518160000155602082015181600101559050505050565b806004600554815481106104b057fe5b9060005260206000200160006101000a81548173ffffffffffffffffffffffffffffffffffffffff021916908373ffffffffffffffffffffffffffffffffffffffff16021790555060056000815480929190600101919050555050565b60016020528060005260406000206000915090508060000154908060010154905082565b60025481565b60035481565b60008054600181600116156101000203166002900480601f0160208091040260200160405190810160405280929190818152602001828054600181600116156101000203166002900480156105d35780601f106105a8576101008083540402835291602001916105d3565b820191906000526020600020905b8154815290600101906020018083116105b657829003601f168201915b505050505081565b6000600160003373ffffffffffffffffffffffffffffffffffffffff1673ffffffffffffffffffffffffffffffffffffffff16815260200190815260200160002060010181905550565b60405180604001604052806000815260200160008152509056fea265627a7a7231582024b828b594f319f8e09ce533af367716a564e2ee4ff6d33de3af9b4c523f76a064736f6c63430005100032a265627a7a72315820220b78664b7993bf3673c01688f12d3520660fe158b0c1e0311cf67938a7f52064736f6c63430005100032",
  "source": "pragma solidity >=0.4.22 <0.7.0;\n\nimport \"./Merchant.sol\";\nimport \"./ResourceManager.sol\";\nimport \"./Resource.sol\";\n\ncontract MarketPlace {\n    \n    // ====== DATA STRUCTURES ======\n    string public test = \"AAAAA\";\n\n    function getTest() public view returns(string memory) {\n      return test;\n    }\n\n    mapping(string => ResourceManager) public resourceManagers;\n    mapping(address => Merchant) public merchants;\n    // mapping(address=>address) public buyers;\n    \n    mapping(address => bool) public merchantExist;\n    // mapping(address => bool) public buyerExist;\n    \n    \n    //\n    \n    \n    // ====== FUNCTIONS ======\n    \n    function registerMerchant(string memory _name, bool _isGov) public {\n        Merchant newMerchant = new Merchant(_name, _isGov);\n        merchants[msg.sender] = newMerchant;\n    }\n    \n    \n    function getMerchant() public view isMerchantModifier returns (Merchant) {\n        return merchants[msg.sender];\n    }\n    \n    function isMerchant() public view returns (bool) {\n        if (merchantExist[msg.sender]) {\n            return true;\n        } else {\n            return false;\n        }\n    }\n    \n    function getResource(string memory _resourceName) public view returns (ResourceManager) {\n        return resourceManagers[_resourceName];\n    }\n    \n    \n    function createResourceType(string memory _resourceType, uint _purchaseNumber, uint256 _purchasePeriod) public returns (string memory) {\n        ResourceManager newResourceManager = new ResourceManager(_resourceType, _purchaseNumber, _purchasePeriod);\n        resourceManagers[_resourceType] = newResourceManager;\n        return _resourceType;\n    }\n    \n    \n    function getResourceManager(string memory _resourceType) public view returns (ResourceManager) {\n        return resourceManagers[_resourceType];\n    }\n    \n    function createSingleResource(string memory _resourceType, string memory _resourceName, uint _amount, bool _isGov) public returns (Resource) {\n        Resource newResource = new Resource(_resourceName, _amount, _isGov);\n        ResourceManager curManager = ResourceManager(resourceManagers[_resourceType]);\n        curManager.addResource(newResource);\n        return newResource;\n    }\n    \n    \n    \n    \n    \n    // ====== MODIFIERS ======\n    \n    modifier isMerchantModifier() {\n        require(isMerchant());\n        _;\n    }\n    \n}",
  "sourcePath": "/Users/suebtrakulkongruangkit/Desktop/Thesis/Developments/express-box/contracts/MarketPlace.sol",
  "compiler": {
    "name": "solc",
    "version": "0.5.16+commit.9c3226ce.Emscripten.clang"
  },
  "schemaVersion": "3.2.2",
  "updatedAt": "2020-07-19T01:10:32.476Z",
  "networkType": "ethereum",
  "devdoc": {
    "methods": {}
  },
  "userdoc": {
    "methods": {}
  }
}