{
  "contractName": "Resource",
  "abi": [
    {
      "inputs": [
        {
          "internalType": "string",
          "name": "_name",
          "type": "string"
        },
        {
          "internalType": "uint256",
          "name": "_amount",
          "type": "uint256"
        },
        {
          "internalType": "bool",
          "name": "_isGov",
          "type": "bool"
        }
      ],
      "payable": false,
      "stateMutability": "nonpayable",
      "type": "constructor"
    },
    {
      "constant": true,
      "inputs": [],
      "name": "amount",
      "outputs": [
        {
          "internalType": "uint256",
          "name": "",
          "type": "uint256"
        }
      ],
      "payable": false,
      "stateMutability": "view",
      "type": "function"
    },
    {
      "constant": true,
      "inputs": [],
      "name": "isGov",
      "outputs": [
        {
          "internalType": "bool",
          "name": "",
          "type": "bool"
        }
      ],
      "payable": false,
      "stateMutability": "view",
      "type": "function"
    },
    {
      "constant": true,
      "inputs": [],
      "name": "name",
      "outputs": [
        {
          "internalType": "string",
          "name": "",
          "type": "string"
        }
      ],
      "payable": false,
      "stateMutability": "view",
      "type": "function"
    },
    {
      "constant": true,
      "inputs": [],
      "name": "owner",
      "outputs": [
        {
          "internalType": "address",
          "name": "",
          "type": "address"
        }
      ],
      "payable": false,
      "stateMutability": "view",
      "type": "function"
    },
    {
      "constant": true,
      "inputs": [],
      "name": "price",
      "outputs": [
        {
          "internalType": "uint256",
          "name": "",
          "type": "uint256"
        }
      ],
      "payable": false,
      "stateMutability": "view",
      "type": "function"
    },
    {
      "constant": true,
      "inputs": [
        {
          "internalType": "uint256",
          "name": "",
          "type": "uint256"
        }
      ],
      "name": "purchaseHistories",
      "outputs": [
        {
          "internalType": "address",
          "name": "_from",
          "type": "address"
        },
        {
          "internalType": "uint256",
          "name": "time",
          "type": "uint256"
        },
        {
          "internalType": "uint256",
          "name": "amount",
          "type": "uint256"
        }
      ],
      "payable": false,
      "stateMutability": "view",
      "type": "function"
    },
    {
      "constant": true,
      "inputs": [],
      "name": "purchaseNumber",
      "outputs": [
        {
          "internalType": "uint256",
          "name": "",
          "type": "uint256"
        }
      ],
      "payable": false,
      "stateMutability": "view",
      "type": "function"
    },
    {
      "constant": true,
      "inputs": [
        {
          "internalType": "uint256",
          "name": "",
          "type": "uint256"
        }
      ],
      "name": "transferHistories",
      "outputs": [
        {
          "internalType": "string",
          "name": "_from",
          "type": "string"
        },
        {
          "internalType": "string",
          "name": "_to",
          "type": "string"
        },
        {
          "internalType": "uint256",
          "name": "time",
          "type": "uint256"
        },
        {
          "internalType": "uint256",
          "name": "amount",
          "type": "uint256"
        },
        {
          "internalType": "string",
          "name": "status",
          "type": "string"
        }
      ],
      "payable": false,
      "stateMutability": "view",
      "type": "function"
    },
    {
      "constant": true,
      "inputs": [],
      "name": "transferStatus",
      "outputs": [
        {
          "internalType": "string",
          "name": "",
          "type": "string"
        }
      ],
      "payable": false,
      "stateMutability": "view",
      "type": "function"
    },
    {
      "constant": true,
      "inputs": [],
      "name": "transfersNumber",
      "outputs": [
        {
          "internalType": "uint256",
          "name": "",
          "type": "uint256"
        }
      ],
      "payable": false,
      "stateMutability": "view",
      "type": "function"
    },
    {
      "constant": false,
      "inputs": [
        {
          "internalType": "string",
          "name": "__from",
          "type": "string"
        },
        {
          "internalType": "string",
          "name": "__to",
          "type": "string"
        },
        {
          "internalType": "uint256",
          "name": "_amount",
          "type": "uint256"
        },
        {
          "internalType": "string",
          "name": "_status",
          "type": "string"
        }
      ],
      "name": "addTransfer",
      "outputs": [],
      "payable": false,
      "stateMutability": "nonpayable",
      "type": "function"
    },
    {
      "constant": false,
      "inputs": [
        {
          "internalType": "uint256",
          "name": "_amount",
          "type": "uint256"
        }
      ],
      "name": "purchaseResource",
      "outputs": [
        {
          "internalType": "bool",
          "name": "",
          "type": "bool"
        }
      ],
      "payable": false,
      "stateMutability": "nonpayable",
      "type": "function"
    },
    {
      "constant": true,
      "inputs": [
        {
          "internalType": "uint256",
          "name": "_index",
          "type": "uint256"
        }
      ],
      "name": "getTransferHistoryFrom",
      "outputs": [
        {
          "internalType": "string",
          "name": "",
          "type": "string"
        }
      ],
      "payable": false,
      "stateMutability": "view",
      "type": "function"
    },
    {
      "constant": true,
      "inputs": [
        {
          "internalType": "uint256",
          "name": "_index",
          "type": "uint256"
        }
      ],
      "name": "getTransferHistoryTo",
      "outputs": [
        {
          "internalType": "string",
          "name": "",
          "type": "string"
        }
      ],
      "payable": false,
      "stateMutability": "view",
      "type": "function"
    },
    {
      "constant": true,
      "inputs": [
        {
          "internalType": "uint256",
          "name": "_index",
          "type": "uint256"
        }
      ],
      "name": "getTransferHistoryTime",
      "outputs": [
        {
          "internalType": "uint256",
          "name": "",
          "type": "uint256"
        }
      ],
      "payable": false,
      "stateMutability": "view",
      "type": "function"
    },
    {
      "constant": true,
      "inputs": [
        {
          "internalType": "uint256",
          "name": "_index",
          "type": "uint256"
        }
      ],
      "name": "getTransferHistoryAmount",
      "outputs": [
        {
          "internalType": "uint256",
          "name": "",
          "type": "uint256"
        }
      ],
      "payable": false,
      "stateMutability": "view",
      "type": "function"
    },
    {
      "constant": true,
      "inputs": [
        {
          "internalType": "uint256",
          "name": "_index",
          "type": "uint256"
        }
      ],
      "name": "getPurchaseHistoryFrom",
      "outputs": [
        {
          "internalType": "address",
          "name": "",
          "type": "address"
        }
      ],
      "payable": false,
      "stateMutability": "view",
      "type": "function"
    },
    {
      "constant": true,
      "inputs": [
        {
          "internalType": "uint256",
          "name": "_index",
          "type": "uint256"
        }
      ],
      "name": "getPurchaseHistoryTime",
      "outputs": [
        {
          "internalType": "uint256",
          "name": "",
          "type": "uint256"
        }
      ],
      "payable": false,
      "stateMutability": "view",
      "type": "function"
    },
    {
      "constant": true,
      "inputs": [
        {
          "internalType": "uint256",
          "name": "_index",
          "type": "uint256"
        }
      ],
      "name": "getPurchaseHistoryAmount",
      "outputs": [
        {
          "internalType": "uint256",
          "name": "",
          "type": "uint256"
        }
      ],
      "payable": false,
      "stateMutability": "view",
      "type": "function"
    }
  ],
  "bytecode": "0x60806040523480156200001157600080fd5b506040516200149638038062001496833981810160405260608110156200003757600080fd5b81019080805160405193929190846401000000008211156200005857600080fd5b838201915060208201858111156200006f57600080fd5b82518660018202830111640100000000821117156200008d57600080fd5b8083526020830192505050908051906020019080838360005b83811015620000c3578082015181840152602081019050620000a6565b50505050905090810190601f168015620000f15780820380516001836020036101000a031916815260200191505b506040526020018051906020019092919080519060200190929190505050326000806101000a81548173ffffffffffffffffffffffffffffffffffffffff021916908373ffffffffffffffffffffffffffffffffffffffff160217905550826001908051906020019062000167929190620001a2565b5080600260006101000a81548160ff021916908315150217905550600060058190555060006006819055508160038190555050505062000251565b828054600181600116156101000203166002900490600052602060002090601f016020900481019282601f10620001e557805160ff191683800117855562000216565b8280016001018555821562000216579182015b8281111562000215578251825591602001919060010190620001f8565b5b50905062000225919062000229565b5090565b6200024e91905b808211156200024a57600081600090555060010162000230565b5090565b90565b61123580620002616000396000f3fe608060405234801561001057600080fd5b50600436106101215760003560e01c8063a035b1fe116100ad578063d72daab611610071578063d72daab61461086a578063d735cf26146108ac578063f4880b22146108ca578063f53b34801461094d578063fc6b3204146109f457610121565b8063a035b1fe14610727578063aa8c217c14610745578063b76f061b14610763578063bbbb20ca1461080a578063ce23a7141461082857610121565b80635b5e9ef6116100f45780635b5e9ef6146102d55780636ab238291461031757806376b857a11461035d5780638da5cb5b146105505780638f28e32d1461059a57610121565b806303f8a0481461012657806306fdde031461019457806333b7fd661461021757806341f6cae114610259575b600080fd5b6101526004803603602081101561013c57600080fd5b8101908080359060200190929190505050610a16565b604051808273ffffffffffffffffffffffffffffffffffffffff1673ffffffffffffffffffffffffffffffffffffffff16815260200191505060405180910390f35b61019c610a5e565b6040518080602001828103825283818151815260200191508051906020019080838360005b838110156101dc5780820151818401526020810190506101c1565b50505050905090810190601f1680156102095780820380516001836020036101000a031916815260200191505b509250505060405180910390f35b6102436004803603602081101561022d57600080fd5b8101908080359060200190929190505050610afc565b6040518082815260200191505060405180910390f35b6102856004803603602081101561026f57600080fd5b8101908080359060200190929190505050610b24565b604051808473ffffffffffffffffffffffffffffffffffffffff1673ffffffffffffffffffffffffffffffffffffffff168152602001838152602001828152602001935050505060405180910390f35b610301600480360360208110156102eb57600080fd5b8101908080359060200190929190505050610b7b565b6040518082815260200191505060405180910390f35b6103436004803603602081101561032d57600080fd5b8101908080359060200190929190505050610ba3565b604051808215151515815260200191505060405180910390f35b61054e6004803603608081101561037357600080fd5b810190808035906020019064010000000081111561039057600080fd5b8201836020820111156103a257600080fd5b803590602001918460018302840111640100000000831117156103c457600080fd5b91908080601f016020809104026020016040519081016040528093929190818152602001838380828437600081840152601f19601f8201169050808301925050505050505091929192908035906020019064010000000081111561042757600080fd5b82018360208201111561043957600080fd5b8035906020019184600183028401116401000000008311171561045b57600080fd5b91908080601f016020809104026020016040519081016040528093929190818152602001838380828437600081840152601f19601f82011690508083019250505050505050919291929080359060200190929190803590602001906401000000008111156104c857600080fd5b8201836020820111156104da57600080fd5b803590602001918460018302840111640100000000831117156104fc57600080fd5b91908080601f016020809104026020016040519081016040528093929190818152602001838380828437600081840152601f19601f820116905080830192505050505050509192919290505050610c5e565b005b610558610cd1565b604051808273ffffffffffffffffffffffffffffffffffffffff1673ffffffffffffffffffffffffffffffffffffffff16815260200191505060405180910390f35b6105c6600480360360208110156105b057600080fd5b8101908080359060200190929190505050610cf6565b60405180806020018060200186815260200185815260200180602001848103845289818151815260200191508051906020019080838360005b8381101561061a5780820151818401526020810190506105ff565b50505050905090810190601f1680156106475780820380516001836020036101000a031916815260200191505b50848103835288818151815260200191508051906020019080838360005b83811015610680578082015181840152602081019050610665565b50505050905090810190601f1680156106ad5780820380516001836020036101000a031916815260200191505b50848103825285818151815260200191508051906020019080838360005b838110156106e65780820151818401526020810190506106cb565b50505050905090810190601f1680156107135780820380516001836020036101000a031916815260200191505b509850505050505050505060405180910390f35b61072f610f01565b6040518082815260200191505060405180910390f35b61074d610f07565b6040518082815260200191505060405180910390f35b61078f6004803603602081101561077957600080fd5b8101908080359060200190929190505050610f0d565b6040518080602001828103825283818151815260200191508051906020019080838360005b838110156107cf5780820151818401526020810190506107b4565b50505050905090810190601f1680156107fc5780820380516001836020036101000a031916815260200191505b509250505060405180910390f35b610812610fcd565b6040518082815260200191505060405180910390f35b6108546004803603602081101561083e57600080fd5b8101908080359060200190929190505050610fd3565b6040518082815260200191505060405180910390f35b6108966004803603602081101561088057600080fd5b8101908080359060200190929190505050610ffb565b6040518082815260200191505060405180910390f35b6108b4611023565b6040518082815260200191505060405180910390f35b6108d2611029565b6040518080602001828103825283818151815260200191508051906020019080838360005b838110156109125780820151818401526020810190506108f7565b50505050905090810190601f16801561093f5780820380516001836020036101000a031916815260200191505b509250505060405180910390f35b6109796004803603602081101561096357600080fd5b81019080803590602001909291905050506110c7565b6040518080602001828103825283818151815260200191508051906020019080838360005b838110156109b957808201518184015260208101905061099e565b50505050905090810190601f1680156109e65780820380516001836020036101000a031916815260200191505b509250505060405180910390f35b6109fc611187565b604051808215151515815260200191505060405180910390f35b600060098281548110610a2557fe5b906000526020600020906003020160000160009054906101000a900473ffffffffffffffffffffffffffffffffffffffff169050919050565b60018054600181600116156101000203166002900480601f016020809104026020016040519081016040528092919081815260200182805460018160011615610100020316600290048015610af45780601f10610ac957610100808354040283529160200191610af4565b820191906000526020600020905b815481529060010190602001808311610ad757829003601f168201915b505050505081565b600060098281548110610b0b57fe5b9060005260206000209060030201600101549050919050565b60098181548110610b3157fe5b90600052602060002090600302016000915090508060000160009054906101000a900473ffffffffffffffffffffffffffffffffffffffff16908060010154908060020154905083565b600060088281548110610b8a57fe5b9060005260206000209060050201600201549050919050565b60008060035411610bb357600080fd5b816003541015610bc65760009050610c59565b610bce61119a565b33816000019073ffffffffffffffffffffffffffffffffffffffff16908173ffffffffffffffffffffffffffffffffffffffff16815250504281602001818152505082816040018181525050600960065481548110610c2957fe5b90600052602060002090505060066000815480929190600101919050555082600360008282540392505081905550505b919050565b600560008154809291906001019190505550610c786111d1565b84816000018190525083816020018190525082816060018181525050818160800181905250600860055481548110610cac57fe5b9060005260206000209050506005600081548092919060010191905055505050505050565b6000809054906101000a900473ffffffffffffffffffffffffffffffffffffffff1681565b60088181548110610d0357fe5b9060005260206000209060050201600091509050806000018054600181600116156101000203166002900480601f016020809104026020016040519081016040528092919081815260200182805460018160011615610100020316600290048015610daf5780601f10610d8457610100808354040283529160200191610daf565b820191906000526020600020905b815481529060010190602001808311610d9257829003601f168201915b505050505090806001018054600181600116156101000203166002900480601f016020809104026020016040519081016040528092919081815260200182805460018160011615610100020316600290048015610e4d5780601f10610e2257610100808354040283529160200191610e4d565b820191906000526020600020905b815481529060010190602001808311610e3057829003601f168201915b505050505090806002015490806003015490806004018054600181600116156101000203166002900480601f016020809104026020016040519081016040528092919081815260200182805460018160011615610100020316600290048015610ef75780601f10610ecc57610100808354040283529160200191610ef7565b820191906000526020600020905b815481529060010190602001808311610eda57829003601f168201915b5050505050905085565b60045481565b60035481565b606060088281548110610f1c57fe5b90600052602060002090600502016001018054600181600116156101000203166002900480601f016020809104026020016040519081016040528092919081815260200182805460018160011615610100020316600290048015610fc15780601f10610f9657610100808354040283529160200191610fc1565b820191906000526020600020905b815481529060010190602001808311610fa457829003601f168201915b50505050509050919050565b60065481565b600060088281548110610fe257fe5b9060005260206000209060050201600301549050919050565b60006009828154811061100a57fe5b9060005260206000209060030201600201549050919050565b60055481565b60078054600181600116156101000203166002900480601f0160208091040260200160405190810160405280929190818152602001828054600181600116156101000203166002900480156110bf5780601f10611094576101008083540402835291602001916110bf565b820191906000526020600020905b8154815290600101906020018083116110a257829003601f168201915b505050505081565b6060600882815481106110d657fe5b90600052602060002090600502016000018054600181600116156101000203166002900480601f01602080910402602001604051908101604052809291908181526020018280546001816001161561010002031660029004801561117b5780601f106111505761010080835404028352916020019161117b565b820191906000526020600020905b81548152906001019060200180831161115e57829003601f168201915b50505050509050919050565b600260009054906101000a900460ff1681565b6040518060600160405280600073ffffffffffffffffffffffffffffffffffffffff16815260200160008152602001600081525090565b6040518060a001604052806060815260200160608152602001600081526020016000815260200160608152509056fea265627a7a72315820addfa66823ec5ec14d93ac5c8f79f253a11bbeb4aed5bfdd80d86cb616c615b164736f6c63430005100032",
  "source": "pragma solidity >=0.4.22 <0.7.0;\n\ncontract Resource {\n    \n    struct TransferHistory {\n        string _from;\n        string _to;\n        uint256 time;\n        uint amount;\n        string status;\n    }\n    \n    struct PurchaseHistory {\n        address _from;\n        uint256 time;\n        uint amount;\n    }\n    \n    address public owner;\n    string public name;\n    bool public isGov;\n    uint public amount;\n    uint public price;\n    uint public transfersNumber;\n    uint public purchaseNumber;\n    string public transferStatus;\n    \n    TransferHistory[] public transferHistories;\n    PurchaseHistory[] public purchaseHistories;\n\n    constructor(string memory _name, uint _amount, bool _isGov) public {\n        owner = tx.origin;\n        name = _name;\n        isGov = _isGov;\n        transfersNumber = 0;\n        purchaseNumber = 0;\n        amount = _amount;\n    }\n\n    \n    function addTransfer(string memory __from, string memory __to, uint _amount, string memory _status) public {\n        transfersNumber++;\n        TransferHistory memory newTransfer;\n        newTransfer._from = __from;\n        newTransfer._to = __to;\n        newTransfer.amount = _amount;\n        newTransfer.status = _status;\n        transferHistories[transfersNumber];\n        transfersNumber++;\n    }\n    \n    \n    function purchaseResource(uint _amount) public enoughAmount returns (bool) {\n        if (amount < _amount) {\n            return false;\n        }\n        PurchaseHistory memory newPurchase;\n        newPurchase._from = msg.sender;\n        newPurchase.time = block.timestamp;\n        newPurchase.amount = _amount;\n        purchaseHistories[purchaseNumber];\n        purchaseNumber++;\n        amount -= _amount;\n        \n    }\n    \n    // getter transfer history\n    function getTransferHistoryFrom(uint _index) public view returns (string memory) {\n        return transferHistories[_index]._from;\n    }\n    \n    function getTransferHistoryTo(uint _index) public view returns (string memory) {\n        return transferHistories[_index]._to;\n    }\n    function getTransferHistoryTime(uint _index) public view returns (uint256) {\n        return transferHistories[_index].time;\n    }\n    function getTransferHistoryAmount(uint _index) public view returns (uint) {\n        return transferHistories[_index].amount;\n    }\n    \n    // getter purchaseHistory\n    function getPurchaseHistoryFrom(uint _index) public view returns (address) {\n        return purchaseHistories[_index]._from;\n    }\n    function getPurchaseHistoryTime(uint _index) public view returns (uint256) {\n        return purchaseHistories[_index].time;\n    }\n    function getPurchaseHistoryAmount(uint _index) public view returns (uint) {\n        return purchaseHistories[_index].amount;\n    }\n        \n        \n    modifier enoughAmount() {\n        require(amount > 0);\n        _;\n    }\n    \n    \n    \n    \n    \n    \n    \n    \n}",
  "sourcePath": "/Users/suebtrakulkongruangkit/Desktop/Thesis/Developments/express-box/contracts/Resource.sol",
  "compiler": {
    "name": "solc",
    "version": "0.5.16+commit.9c3226ce.Emscripten.clang"
  },
  "schemaVersion": "3.2.2",
  "updatedAt": "2020-07-19T01:10:32.483Z",
  "networkType": "ethereum",
  "devdoc": {
    "methods": {}
  },
  "userdoc": {
    "methods": {}
  }
}