{
  "contractName": "ResourceManager",
  "abi": [
    {
      "inputs": [
        {
          "internalType": "string",
          "name": "_resourceType",
          "type": "string"
        },
        {
          "internalType": "uint256",
          "name": "_purchaseNumber",
          "type": "uint256"
        },
        {
          "internalType": "uint256",
          "name": "_purchasePeriod",
          "type": "uint256"
        }
      ],
      "payable": false,
      "stateMutability": "nonpayable",
      "type": "constructor"
    },
    {
      "constant": true,
      "inputs": [
        {
          "internalType": "address",
          "name": "",
          "type": "address"
        }
      ],
      "name": "buyerRecords",
      "outputs": [
        {
          "internalType": "uint256",
          "name": "time",
          "type": "uint256"
        },
        {
          "internalType": "uint256",
          "name": "amount",
          "type": "uint256"
        }
      ],
      "payable": false,
      "stateMutability": "view",
      "type": "function"
    },
    {
      "constant": true,
      "inputs": [],
      "name": "purchaseNumber",
      "outputs": [
        {
          "internalType": "uint256",
          "name": "",
          "type": "uint256"
        }
      ],
      "payable": false,
      "stateMutability": "view",
      "type": "function"
    },
    {
      "constant": true,
      "inputs": [],
      "name": "purchasePeriod",
      "outputs": [
        {
          "internalType": "uint256",
          "name": "",
          "type": "uint256"
        }
      ],
      "payable": false,
      "stateMutability": "view",
      "type": "function"
    },
    {
      "constant": true,
      "inputs": [],
      "name": "resourceNumber",
      "outputs": [
        {
          "internalType": "uint256",
          "name": "",
          "type": "uint256"
        }
      ],
      "payable": false,
      "stateMutability": "view",
      "type": "function"
    },
    {
      "constant": true,
      "inputs": [],
      "name": "resourceType",
      "outputs": [
        {
          "internalType": "string",
          "name": "",
          "type": "string"
        }
      ],
      "payable": false,
      "stateMutability": "view",
      "type": "function"
    },
    {
      "constant": true,
      "inputs": [
        {
          "internalType": "uint256",
          "name": "",
          "type": "uint256"
        }
      ],
      "name": "resources",
      "outputs": [
        {
          "internalType": "contract Resource",
          "name": "",
          "type": "address"
        }
      ],
      "payable": false,
      "stateMutability": "view",
      "type": "function"
    },
    {
      "constant": false,
      "inputs": [
        {
          "internalType": "contract Resource",
          "name": "_resourceAddress",
          "type": "address"
        }
      ],
      "name": "addResource",
      "outputs": [],
      "payable": false,
      "stateMutability": "nonpayable",
      "type": "function"
    },
    {
      "constant": false,
      "inputs": [
        {
          "internalType": "uint256",
          "name": "_amount",
          "type": "uint256"
        }
      ],
      "name": "checkBuyerCondition",
      "outputs": [
        {
          "internalType": "bool",
          "name": "",
          "type": "bool"
        }
      ],
      "payable": false,
      "stateMutability": "nonpayable",
      "type": "function"
    },
    {
      "constant": false,
      "inputs": [
        {
          "internalType": "uint256",
          "name": "_amount",
          "type": "uint256"
        }
      ],
      "name": "updateBuyer",
      "outputs": [],
      "payable": false,
      "stateMutability": "nonpayable",
      "type": "function"
    },
    {
      "constant": false,
      "inputs": [],
      "name": "resetBuyer",
      "outputs": [],
      "payable": false,
      "stateMutability": "nonpayable",
      "type": "function"
    }
  ],
  "bytecode": "0x608060405234801561001057600080fd5b506040516108623803806108628339818101604052606081101561003357600080fd5b810190808051604051939291908464010000000082111561005357600080fd5b8382019150602082018581111561006957600080fd5b825186600182028301116401000000008211171561008657600080fd5b8083526020830192505050908051906020019080838360005b838110156100ba57808201518184015260208101905061009f565b50505050905090810190601f1680156100e75780820380516001836020036101000a031916815260200191505b506040526020018051906020019092919080519060200190929190505050826000908051906020019061011b92919061013a565b50816002819055508060038190555060006005819055505050506101df565b828054600181600116156101000203166002900490600052602060002090601f016020900481019282601f1061017b57805160ff19168380011785556101a9565b828001600101855582156101a9579182015b828111156101a857825182559160200191906001019061018d565b5b5090506101b691906101ba565b5090565b6101dc91905b808211156101d85760008160009055506001016101c0565b5090565b90565b610674806101ee6000396000f3fe608060405234801561001057600080fd5b506004361061009e5760003560e01c80639b28e008116100665780639b28e008146101e7578063bbbb20ca14610246578063df0f093b14610264578063f7d2219014610282578063fc3d0059146103055761009e565b80631833f2e1146100a3578063244d6daa146100e95780633caedaa9146101575780635ab4a72b146101755780635bc05aae146101a3575b600080fd5b6100cf600480360360208110156100b957600080fd5b810190808035906020019092919050505061030f565b604051808215151515815260200191505060405180910390f35b610115600480360360208110156100ff57600080fd5b81019080803590602001909291905050506103e7565b604051808273ffffffffffffffffffffffffffffffffffffffff1673ffffffffffffffffffffffffffffffffffffffff16815260200191505060405180910390f35b61015f610423565b6040518082815260200191505060405180910390f35b6101a16004803603602081101561018b57600080fd5b8101908080359060200190929190505050610429565b005b6101e5600480360360208110156101b957600080fd5b81019080803573ffffffffffffffffffffffffffffffffffffffff1690602001909291905050506104a0565b005b610229600480360360208110156101fd57600080fd5b81019080803573ffffffffffffffffffffffffffffffffffffffff16906020019092919050505061050d565b604051808381526020018281526020019250505060405180910390f35b61024e610531565b6040518082815260200191505060405180910390f35b61026c610537565b6040518082815260200191505060405180910390f35b61028a61053d565b6040518080602001828103825283818151815260200191508051906020019080838360005b838110156102ca5780820151818401526020810190506102af565b50505050905090810190601f1680156102f75780820380516001836020036101000a031916815260200191505b509250505060405180910390f35b61030d6105db565b005b600080600160003373ffffffffffffffffffffffffffffffffffffffff1673ffffffffffffffffffffffffffffffffffffffff1681526020019081526020016000206001015490506000600160003373ffffffffffffffffffffffffffffffffffffffff1673ffffffffffffffffffffffffffffffffffffffff168152602001908152602001600020600001549050426003548201106103bc576103b16105db565b6001925050506103e2565b600254848301116103db576103d084610429565b6001925050506103e2565b6000925050505b919050565b600481815481106103f457fe5b906000526020600020016000915054906101000a900473ffffffffffffffffffffffffffffffffffffffff1681565b60055481565b610431610625565b428160000181815250508181602001818152505080600160003373ffffffffffffffffffffffffffffffffffffffff1673ffffffffffffffffffffffffffffffffffffffff16815260200190815260200160002060008201518160000155602082015181600101559050505050565b806004600554815481106104b057fe5b9060005260206000200160006101000a81548173ffffffffffffffffffffffffffffffffffffffff021916908373ffffffffffffffffffffffffffffffffffffffff16021790555060056000815480929190600101919050555050565b60016020528060005260406000206000915090508060000154908060010154905082565b60025481565b60035481565b60008054600181600116156101000203166002900480601f0160208091040260200160405190810160405280929190818152602001828054600181600116156101000203166002900480156105d35780601f106105a8576101008083540402835291602001916105d3565b820191906000526020600020905b8154815290600101906020018083116105b657829003601f168201915b505050505081565b6000600160003373ffffffffffffffffffffffffffffffffffffffff1673ffffffffffffffffffffffffffffffffffffffff16815260200190815260200160002060010181905550565b60405180604001604052806000815260200160008152509056fea265627a7a7231582024b828b594f319f8e09ce533af367716a564e2ee4ff6d33de3af9b4c523f76a064736f6c63430005100032",
  "source": "pragma solidity >=0.4.22 <0.7.0;\n\nimport \"./Resource.sol\";\n\ncontract ResourceManager {\n    \n    // struct transferHistory {\n    //     string from;\n    //     string to;\n    //     uint256 time;\n    //     uint amount;\n    // }\n    \n    struct BuyerRecord {\n        uint256 time;\n        uint amount;\n    }\n    \n    string public resourceType;\n    mapping( address => BuyerRecord ) public buyerRecords;\n    uint public purchaseNumber;\n    uint256 public purchasePeriod;\n    Resource[] public resources;\n    uint public resourceNumber;\n    \n    constructor(string memory _resourceType,uint _purchaseNumber, uint256 _purchasePeriod) public {\n        resourceType = _resourceType;\n        purchaseNumber = _purchaseNumber;\n        purchasePeriod = _purchasePeriod;\n        resourceNumber = 0;\n    }\n    \n    function addResource(Resource _resourceAddress) public {\n        resources[resourceNumber] = _resourceAddress;\n        resourceNumber++;\n    }\n    \n    \n    function checkBuyerCondition(uint _amount) public returns (bool) {\n        uint curBuyerAmount = buyerRecords[msg.sender].amount;\n        uint256 curBuyerTime = buyerRecords[msg.sender].time;\n        if (curBuyerTime+purchasePeriod >= block.timestamp) {\n            resetBuyer();\n            return true;\n        } else {\n            if (curBuyerAmount+_amount <= purchaseNumber) {\n                updateBuyer(_amount);\n                return true;\n            }\n        }\n        return false;\n    }\n    \n    function updateBuyer(uint _amount) public {\n        BuyerRecord memory newBuyerRecord;\n        newBuyerRecord.time = block.timestamp;\n        newBuyerRecord.amount = _amount;\n        buyerRecords[msg.sender] = newBuyerRecord;\n    }\n    \n    function resetBuyer() public {\n        buyerRecords[msg.sender].amount = 0;\n    }\n    \n    // modifier purchaseRule() {\n    //     // if timer\n    //     uint curBuyerAmount = buyerRecords[msg.sender].amount;\n    //     uint256 curBuyerTime = buyerRecords[msg.sender].time\n    //     if (curBuyerTime <)\n    //     _;\n    // }\n    \n    \n    \n    \n}",
  "sourcePath": "/Users/suebtrakulkongruangkit/Desktop/Thesis/Developments/express-box/contracts/ResourceManager.sol",
  "compiler": {
    "name": "solc",
    "version": "0.5.16+commit.9c3226ce.Emscripten.clang"
  },
  "schemaVersion": "3.2.2",
  "updatedAt": "2020-07-19T01:10:32.487Z",
  "networkType": "ethereum",
  "devdoc": {
    "methods": {}
  },
  "userdoc": {
    "methods": {}
  }
}